:03000000020DF9F5
:0C0DF900787FE4F6D8FD75811B020E40E7
:100E8500C2A58B807F017E00120EAED2A77F057EA4
:100E950000120EAEC2A7EBC454F0F5807F017E00B0
:090EA500120EAED2A77F057E00FB
:100EAE00D3EF9400EE940040257DC7EDD3940074EB
:100EBE0080948040127C01ECD39400748094804026
:0E0ECE00031C80F31D80E4EF1F70D51E80D240
:010EDC0022F3
:0C105C00AB07C2A7C2A6120E85C2A722D5
:0C106800AB07C2A7D2A6120E85C2A722B9
:100FAA007F3212105C7F2812105C7F0C12105C7F5B
:0E0FBA000612105C7F0112105C7F8002105C3A
:100FC800D3EF9400EE940040147D6E7C00ED1D700C
:0D0FD800011CED4C70F7EF1F70E61E80E36A
:010FE50022E9
:100F5D00C2B77B46AF031BEF70FAD2B7FB30B717A2
:100F6D000BEBD394057480948040037F00227F01A6
:090F7D007E00120FC880E67F011E
:010F86002248
:0C0EDD00120F5D7F017E00120FC87FCC59
:100EE900E4FBFAC2B7050AE50A70020509EF139295
:100EF900B7750900750A06E50A150AAC09700215E5
:100F0900094C70F3D2B7EFC313FF0BBB00010AEB17
:050F190064084A70CEDF
:010F1E0022B0
:100F1F007D087C00C2B70FBF0000D2B70FBF000023
:100F2F000FBF0000A2B7E433C43333335480FBE95F
:100F3F00C3134BF97E007F04EF1FAA0670011E4AF0
:0D0F4F0070F6ED1D70011CED4C70C9AF0176
:010F5C002272
:0F104D00120EDD7F44120EE97F647E00020FC891
:08107D00120EDD7FBE020EE938
:100FFE00E4FFFE12104D12107D120F1F8F08120FFC
:06100E001FEFFEE508FFE4
:0110140022B9
:10103D00758921758CFF758A38D2AFC2A9C28C22F1
:05108D00D2A9D28C2263
:05109200C2A9C28C227E
:10101500758921759850758DFD858D8BE4F587D281
:06102500AFD2ACD28E2216
:100F87008B198A1A891BAB19AA1AA91B120BB3FF53
:100F970060101210857401251BF51BE4351AF51A2C
:030FA70080E422C1
:081085008F993099FDC29922F8
:05109700000000000054
:081074000613C9E3CACFB6C898
:100FE600121015120FAA7F8812105C7F4312106828
:080FF600120FFE120C6580F8D9
:040C65008E088F095D
:100C6900780A7C007D007BFF7A1079977E007F05EA
:100C7900120B8DC3E5086480948050227F80121086
:100C89005C75992D3099FDC2997F2D121068E5097F
:100C99001509700215086309FF6308FF80127F8038
:100CA90012105C7F2B12106875992B3099FDC2992F
:100CB900AC08AD09EC120A038F128E118D108C0F3E
:100CC900E4FFFE7DC87C40AB12AA11A910A80F123F
:100CD90008F8E4FBFAF9783F120807120A3C8E0873
:100CE9008F09AE08AF097C277D10120BCC8F0AAE95
:100CF90008AF097C277D10120BCC7E037FE8CFCD8E
:100D0900CFCECCCE120BCC8F0BAE08AF097C037DB6
:100D1900E8120BCC7E007F64CFCDCFCECCCE120BA8
:100D2900CC8F0CAE08AF097C007D64120BCC7E0021
:100D39007F0ACFCDCFCECCCE120BCC8F0DAE08AF64
:100D4900097C007D0A120BCC8D0E7F8212105CE5A6
:100D59000A2430FF121068E50A2430F5993099FD0C
:100D6900C2997F8312105CE50B2430FF121068E5ED
:100D79000B2430F5993099FDC2997F8412105CE5F6
:100D89000C2430FF121068E50C2430F5993099FDD8
:100D9900C2997F8512105C7F2E12106875992E30CA
:100DA90099FDC2997F8612105CE50D2430FF12105F
:100DB90068E50D2430F5993099FDC2997F871210A5
:100DC9005CE50E2430FF121068E50E2430F59930E9
:100DD90099FDC299E4FFEFC3940674809480500F83
:0F0DE90074132FF8E6F5993099FDC2990F80E742
:010DF80022D8
:10102B00759850758920758780758DF3758BF3D204
:02103B008E2203
:10080000020AA8E86480F8E933E83360110460F074
:10081000ED33EC337009E8FCE9FDEAFEEBFF22045E
:1008200060DED3EB9FEA9EE99DE8C2E78CF0C2F759
:1008300095F0400CE8CCF8E9CDF9EACEFAEBCFFB25
:10084000120A7385D0F05804700320D5B3E8047001
:10085000075002B2D5020AB292D5EC0460F7E4CC9C
:10086000C0E0C398F8603B94186008400DD0E0FBEE
:10087000020A8AE4FBFAC9FC8028E830E406E4C9ED
:10088000FBE4CAFCE830E305E4C9CACBFCE8540742
:100890006010F8C3E913F9EA13FAEB13FBEC13FC4D
:1008A000D8F130F52FC3E49CFCEF9BFFEE9AFEEDF0
:1008B00099FDD0E0FBEF4E4D4C701222DB03020A93
:1008C000AFEC2CFCEF33FFEE33FEED33FDED30E704
:1008D000EB020A8AEF2BFFEE3AFEED39FDD0E0FB8A
:1008E00050130BBB0003020AB2ED13FDEE13FEEF33
:0808F00013FFEC13FC020A8A5D
:1008F800EC4D6011E8497017ED33EC3304600DE4FA
:10090800FCFFFEFD22E933E8330470F8020AA8125E
:100918000A7358046009E4CC24815006285009025F
:100928000AB2284003020AAFC0E0EB4A7044B9801B
:1009380006D0E0FB020A9EEF4E701CBD8008EBFF5C
:10094800EAFEE9FD80EBE98DF0A4FEE5F00209E19D
:10095800E9CDF9EAFEEBFFEF89F0A4FCE5F0CE89DA
:10096800F0A42EFFE435F0CD89F0A42DFEE435F097
:100978008067EF4E7005BD80D780C3EF8BF0A4ACC5
:10098800F0EE8BF0A42CFCE435F0F8EF8AF0A42C00
:10099800E5F038FCE433CB8DF0A42CFCE5F03BF813
:1009A800EE8AF0A42CFCE5F038F8E433CF89F0A403
:1009B8002CFCE5F038CF3400CE89F0A42FFFE5F009
:1009C8003EFEE433C98DF0A42EFEE5F039CD8AF061
:1009D800A42FFFE5F03EFEE43DFD33D0E0FB5007D9
:1009E8000BBB000F020AB2EC2CFCEF33FFEE33FE18
:0609F800ED33FD020A8A46
:1009FE0075F020800E75F010800575F0087D007E74
:100A0E00007F003392D530D503120C02EC33401028
:100A1E00EF33FFEE33FEED33FDEC33FCD5F0ED227C
:0E0A2E00E5F0247EA2D513CC92E7CDCEFF22B8
:100A3C00EDD2E7CD33EC3392D524814006E4FFFEB2
:100A4C00FDFC22FCE4CFCECDCC24E0501174FF8011
:100A5C00EDC3CC13CCCD13CDCE13CECF13CF0470AE
:070A6C00F030D5DE020C02A0
:100A7300E9D2E7C933E833F892D5EDD2E7CD33ECC9
:070A830033FC5002B2D52242
:100A8A00EC30E7100FBF000C0EBE00080DBD0004CD
:100A9A000BEB6014A2D5EB13FCED92E7FD2274FF79
:100AAA00FCFDFEFF22E480F8A2D574FF13FC7D80D2
:030ABA00E480EFE6
:100E0500020FE6E493A3F8E493A34003F68001F20E
:100E150008DFF48029E493A3F85407240CC8C333EE
:100E2500C4540F4420C8834004F456800146F6DFBD
:100E3500E4800B0102040810204080901074E47EC9
:100E4500019360BCA3FF543F30E509541FFEE493B2
:100E5500A360010ECF54C025E060A840B8E493A379
:100E6500FAE493A3F8E493A3C8C582C8CAC583CAA4
:100E7500F0A3C8C582C8CAC583CADFE9DEE780BE5C
:01107C000073
:100ABD00E709F608DFFA8046E709F208DFFA803E1B
:100ACD0088828C83E709F0A3DFFA8032E309F60808
:100ADD00DFFA8078E309F208DFFA807088828C8370
:100AED00E309F0A3DFFA806489828A83E0A3F60824
:100AFD00DFFA805889828A83E0A3F208DFFA804CFE
:100B0D0080D280FA80C680D4806980F280338010D4
:100B1D0080A680EA809A80A880DA80E280CA80333D
:100B2D0089828A83ECFAE493A3C8C582C8CCC583B5
:100B3D00CCF0A3C8C582C8CCC583CCDFE9DEE78085
:100B4D000D89828A83E493A3F608DFF9ECFAA9F004
:100B5D00EDFB2289828A83ECFAE0A3C8C582C8CC5A
:100B6D00C583CCF0A3C8C582C8CCC583CCDFEADE73
:100B7D00E880DB89828A83E493A3F208DFF980CCD5
:100B8D0088F0EF60010E4E60C388F0ED2402B404CE
:100B9D000050B9F582EB2402B4040050AF23234575
:060BAD008223900B0D7382
:100BB300BB010689828A83E0225002E722BBFE0240
:090BC300E32289828A83E4932273
:100BCC00C2D5EC30E709B2D5E4C39DFDE49CFCEE44
:100BDC0030E715B2D5E4C39FFFE49EFE120C10C3A0
:100BEC00E49DFDE49CFC8003120C1030D507C3E49B
:060BFC009FFFE49EFE22B3
:0E0C0200C3E49FFFE49EFEE49DFDE49CFC2203
:100C1000BC000BBE0029EF8DF084FFADF022E4CCC8
:100C2000F875F008EF2FFFEE33FEEC33FCEE9DEC91
:100C3000984005FCEE9DFE0FD5F0E9E4CEFD22EDD7
:100C4000F8F5F0EE8420D21CFEADF075F008EF2F21
:100C5000FFED33FD4007985006D5F0F222C398FD12
:050C60000FD5F0EA22AF
:00000001FF
